:02000002D0002C
:1040000000400D00F4510D00000006000C000501F9
:084010000401BD0B00000000DB
:04401800B04F0D0098
:10401C0009480A49884208B505D0094A824202D0AB
:10402C00121A00F07DFF0748074A0021121A00F00F
:10403C0085FF014808BD00BFCCE5032064510D008D
:10404C0034E6032034E60320F0E7032070B5074E76
:10405C00074C00F05BFEA41BA4080025A54200D170
:10406C0070BD56F8043B98470135F7E738510D0001
:10407C005C510D0000F01BB808B500F025F8BDE848
:10408C00084000F005BE00F011BA00F017BA007835
:10409C00B0FA80F04009704701230370704710B5E7
:1040AC000446006808B100F009FA204610BD08B5B6
:1040BC0000F064FD4FF4165100F054FDBDE80840CB
:1040CC000121052000F092BE38B50E2000F0B8FE9C
:1040DC00044600F053FDA4B20A222146054600F026
:1040EC000CFC284600F0FDFB0121052000F08FFEA2
:1040FC00204600F0F3F90520002100F088FE204650
:10410C00BDE8384000F0EAB938B50A4C0A4BA36058
:10411C00002503202560A580A57100F033F907491F
:10412C00074A204600F0E4FE29460120BDE838404D
:10413C0000F038B938E603200000FFFFAB400D005B
:10414C0034E6032008B5024B1B685B6C019308BD79
:10415C004802030008B5024B1B689B6C019308BD19
:10416C004802030008B5024B1B685B68019308BD4D
:10417C001802030008B5024B1B685B69019308BD6C
:10418C001802030008B5024B1B685B68019308BD5D
:10419C002C02030008B5024B1B689B68019308BDF9
:1041AC002C02030008B5024B1B68DB68019308BDA9
:1041BC002C02030008B5024B1B681B69019308BD58
:1041CC002C02030008B5024B1B681B6B019308BD46
:1041DC002C02030008B5024B1B681B6A019308BD37
:1041EC002802030008B5024B1B685B6A019308BDEB
:1041FC002802030008B5024B1B689B6A019308BD9B
:10420C002802030008B5024B1B68DB6A019308BD4A
:10421C002802030008B5024B1B681B6B019308BDF9
:10422C002802030008B5024B1B685B6B019308BDA9
:10423C002802030008B5024B1B681B6C019308BDD8
:10424C002802030008B5024B1B685B69019308BD8B
:10425C006402030008B5024B1B689B68019308BD00
:10426C006802030008B5024B1B68DB68019308BDAC
:10427C006802030008B5024B1B68DB69019308BD9B
:10428C003002030008B5024B1B681B6A019308BD82
:10429C003002030008B5024B1B681B68019308BD74
:1042AC003C02030008B5024B1B68DB68019308BD98
:1042BC003C02030008B5024B1B681B69019308BD47
:1042CC003C02030008B5024B1B685B69019308BDF7
:1042DC003C02030008B5024B1B689B69019308BDA7
:1042EC003C02030008B5024B1B68DB69019308BD57
:1042FC003C02030008B5024B1B681B6A019308BD06
:10430C003C02030008B5024B1B689B6A019308BD75
:10431C003C02030008B5024B1B681B68019308BDE7
:10432C004C02030008B5024B1B685B68019308BD87
:10433C004C02030008B5024B1B681B69019308BDB6
:10434C004C02030008B5024B1B685B69019308BD66
:10435C004C02030008B5024B1B689B69019308BD16
:10436C004C02030008B5024B1B68DB69019308BDC6
:10437C004C02030008B5024B1B681B6A019308BD75
:10438C004C02030008B5024B1B685B68019308BD27
:10439C002002030008B5024B1B685B69019308BD42
:1043AC002002030008B5024B1B68DB6A019308BDB1
:1043BC002002030008B5034B1B68D3F88830019327
:1043CC0008BD00002002030008B5034B1B68D3F89E
:1043DC009430019308BD00002002030008B5024B85
:1043EC001B68DB6B019308BD4402030008B5024B4C
:1043FC001B685B68019308BD4002030008B5024BC3
:10440C001B689B68019308BD4002030008B5024B72
:10441C001B68DB68019308BD4002030008B5024B22
:10442C001B681B69019308BD4002030008B5024BD1
:10443C001B685B69019308BD4002030008B5024B81
:10444C001B689B69019308BD4002030008B5024B31
:10445C001B68DB69019308BD4002030008B5024BE1
:10446C001B681B6A019308BD4002030008B5024B90
:10447C001B681B6B019308BD4002030008B5024B7F
:10448C001B685B6B019308BD4002030008B5024B2F
:10449C001B681B6C019308BD4002030008B5024B5E
:1044AC001B685B6C019308BD4002030008B5024B0E
:1044BC001B681B68019308BD1C02030008B5024B66
:1044CC001B685B68019308BD1C02030008B5024B16
:1044DC001B685B6C019308BD1C0203000021FFF7F5
:1044EC0059BF10B50446006808B1FFF733FE2046EB
:1044FC0010BD10B58368044613B1032201469847DA
:10450C00204610BD10B5064C002320462360FFF753
:10451C0019FE2046034A0449BDE8104000F0E8BCEF
:10452C0044E6032034E60320EF440D0000224068EB
:10453C001146FFF793BF002240681146FFF79EBF5C
:10454C0040680022FFF792BF4068002281F0010111
:10455C00FFF77CBF002340681A461946FFF76EBF71
:10456C00002340681A461946FFF760BF00224068D6
:10457C001146FFF753BF002240681146FFF73EBFBC
:10458C00406800220221FFF741BF002340681A4611
:10459C00FFF72CBF024B03225A60024A1A60704785
:1045AC0048E60320CC4F0D007047F8B5064615467B
:1045BC000C468F18BC4206D0336814F8011B9B685C
:1045CC0030469847F6E72846F8BD007C0022FFF7F6
:1045DC0001BE007C0021FFF705BE007C0021FFF727
:1045EC0009BE007C0021FFF70DBE007C0021FFF707
:1045FC0011BE10B51421044600F07FFC204610BDFE
:10460C0010B54FF47A73044608460021C4E901132F
:10461C00034B236020741146FFF70CFE204610BD9F
:10462C0008500D00704710B51821044600F065FCC9
:10463C00204610BDF0B5037D062B8DB00E4600F163
:10464C0004074FF0000412D000F1080515F8011D05
:10465C000A22304600F051F9AF42044419D0002C24
:10466C00F4D02E21304600F039F90444EEE72F2324
:10467C006A4639460A208DF80040FFF7E3FD68468C
:10468C0000F088FC33680246DB6869463046984780
:10469C00044620460DB0F0BD10B5054B0446112262
:1046AC0040F8043B002100F049FC204610BD00BF3F
:1046BC0030500D000346074A10B543F8042B01F1A6
:1046CC00100251F8044B43F8044B9142F9D10A788B
:1046DC001A7010BD30500D0010B59DF8084044EA1A
:1046EC00032343EA024242EA016104234160037559
:1046FC0010BD000013B5054B0360CB7800938B788D
:10470C004A780978FFF7E8FF02B010BD30500D0071
:10471C00014B024A1A60704750E603203C500D00D2
:10472C00002340681A46FFF761BE40680022022150
:10473C00FFF76CBE002240681146FFF75FBE0022F7
:10474C0040681146FFF76ABE002340681A461946B6
:10475C00FFF76CBE002340681A461946FFF76EBE81
:10476C0040680021FFF792BE40680021FFF796BE1B
:10477C004068002281F00101FFF768BE406800220A
:10478C00FFF774BE002240681146FFF777BE002287
:10479C0040681146FFF762BE2DE9F043002495B046
:1047AC0016460D460746FFF777FF214618220EA83E
:1047BC00009400F0C3FB4023CDE90C3421466B463A
:1047CC000CAA3046FFF74EFD044600284CD1024699
:1047DC0001216868FFF722FE0221804622466868A4
:1047EC00FFF71CFE009E81462146002E3CD000297E
:1047FC003AD17368022B03D00A2B11D0F669F4E777
:10480C00B8F1000F0AD0716906A8043107ADFFF7A3
:10481C0071FF0FCD3C1D0FC42B6823704146EDE793
:10482C00B9F1000F01D14946E8E77469102201A8DB
:10483C0000F084FB06238DF8143001AD04F108035D
:10484C001834186859682A4603C20833A34215461F
:10485C00F7D101A906A807ADFFF72CFF0FCD3C1D22
:10486C000FC42B682370DEE70098FFF7F3FC384683
:10487C0015B0BDE8F0830000024B034A1A60002219
:10488C005A60704754E6032048500D00F8B50646B0
:10489C000D468F180024BD420CD0336815F8011B4F
:1048AC009B6830469847031E01DB1C44F3E7002C41
:1048BC0008BF1C462046F8BD13B50446084659B13E
:1048CC00019100F067FB23680199DB6802462046E2
:1048DC0002B0BDE81040184702B010BD03689B68D9
:1048EC00184738B50D210546FFF7F8FF0A21044695
:1048FC002846FFF7F3FF204438BD30B58BB00023BA
:10490C008DF82430012A98BF0A2209AC0D46B1FB60
:10491C00F2F101FB125303F0FF03092B94BF303368
:10492C003733DBB2AA4204F8013DEFD92146FFF739
:10493C00C3FF0BB030BD10B50446FFF7DAFD2046BF
:10494C0010BD00000348044A04490023836000F0B2
:10495C00CFBA00BF5CE6032034E6032043490D00C8
:10496C0010B5044608462170FFF784FC00236360F1
:10497C00204610BD10B5094B094C022200201A60CC
:10498C00084B2060A080A071A360FFF7FBFC2046C1
:10499C00054A0649BDE8104000F0AABA78E60320A3
:1049AC006CE603200000FFFF34E60320AB400D0053
:1049BC00024B1A68024B1A60704700BFCCE503200B
:1049CC007CE6032070474174704708B5007CFFF704
:1049DC0099FC20EAE07008BD08B5007CFFF76AFC82
:1049EC0020EAE07008BD08B5007CFFF773FC40EAD4
:1049FC00E07008BD08B5007CFFF764FC40EAE0708D
:104A0C0008BD007CFFF76EBC37B5457C04462DB164
:104A1C00207C03B0BDE83040FFF744BC007C019122
:104A2C00FFF770FC00280199F2DC284603B030BD7A
:104A3C0010B51421044600F060FA204610BD0000A9
:104A4C0010B54FF0000C0446084611464FF47A722C
:104A5C00C4E901C2044A22600122207462741A461D
:104A6C00FFF718FC204610BDA0500D0013B50E4CDE
:104A7C002178BFF35B8F11F0010112D12046019117
:104A8C00FFF705FB019960B1084A094B0948FFF78C
:104A9C00D7FF2046FFF700FB074A0849054800F0FE
:104AAC0027FA044802B010BD80E6032084E60320F8
:104ABC0008E703208CE7032034E60320D1490D00DE
:104ACC0041747047704708B50021007CFFF742FC29
:104ADC0040EAE07008BD08B50121007CFFF73AFC04
:104AEC0040EAE07008BD08B5007CFFF72BFC20EA1B
:104AFC00E07008BD08B5007CFFF71CFC20EAE070F4
:104B0C0008BD13B50446007C0191FFF71BFC00287F
:104B1C00019901DC607C20B1207CFFF723FC20EAAA
:104B2C00E07002B010BD007CFFF724BC10B514215E
:104B3C00044600F0E2F9204610BD000010B54FF419
:104B4C007A73044608460021C4E90113044B236020
:104B5C000123207463741146FFF7DCFB204610BD63
:104B6C00D0500D00007C0022FFF7DCBB10B51422E6
:104B7C000446002100F0E2F9204610BD10B5104C9F
:104B8C0088B003A8FFF7F2FF2178BFF35B8F11F019
:104B9C00010111D120460191FFF779FA019958B121
:104BAC0003AA0848FFF7CAFF2046FFF775FA064A22
:104BBC000649044800F09CF9024808B010BD00BF3B
:104BCC00A0E70320A4E7032034E60320D14A0D001C
:104BDC00002240681146FFF721BC002240681146B4
:104BEC00FFF73CBC002240681146FFF747BC406809
:104BFC000022FFF73BBC4068002281F00101FFF767
:104C0C0025BC002340681A461946FFF717BC002341
:104C1C0040681A461946FFF709BC00224068114645
:104C2C00FFF7ECBB406800220221FFF7EFBB00232B
:104C3C0040681A46FFF7DABB024B04225A60024A5C
:104C4C001A607047B8E7032000510D00014B186043
:104C5C00704700BFD0E5032008B50B4B43B1FFF7FD
:104C6C008DFF03681B699847002801DDAFF30080B6
:104C7C00064B43B1FFF7FAFE03681B6998470028FF
:104C8C0001DDAFF3008008BD000000000000000053
:104C9C0008B5FFF7E1FFFFF76DFA014B186008BD8F
:104CAC00D4E703200248034A0349121A00F038B92A
:104CBC0000F4032004F4032060510D0007B5002319
:104CCC0000931A466FF07701FFF77EFB03B05DF897
:104CDC0004FB000007B543880A2B08D0502B0BD1DE
:104CEC00094B1B684BB103B05DF804EB1847FFF799
:104CFC00E5FF03B05DF804FB002300931A466FF048
:104D0C007701FFF761FBF4E7C4E7032038B5124CD9
:104D1C001248134D0021FFF7D9FB2368AB42114B0E
:104D2C000CBF012200221A7002D0FFF7BBFF2560D6
:104D3C00FFF718FA044600F009F90B4B13B12046A3
:104D4C00AFF3008000210848FFF748FBBDE838406E
:104D5C0006480021FFF72EBB00F40320594C0D0030
:104D6C001E1C279AC0E7032000000000E14C0D0038
:104D7C00232813B502D9002002B010BDA0F10B03FB
:104D8C00022B1AD8174C2178BFF35B8F11F001015D
:104D9C000BD120460191FFF77AF9019928B11248FD
:104DAC00FFF7DEFD2046FFF777F90F4B1878FFF77A
:104DBC0069FA0028DFD10120DEE7012809D800F0CC
:104DCC006FF80021007CFFF72DFA80F00100C0B2D3
:104DDC00D2E709380128EED8FFF748FE007CFFF730
:104DEC0089FAF2E7C8E70320CCE70320232838B57B
:104DFC0004460D460AD8FF2908D0FFF7B9FF28B1A1
:104E0C0029462046BDE83840FFF7C4B938BD38B54F
:104E1C0004460D46FFF7C6F9FF2810D0062804D823
:104E2C004D2323FA00F0C30709D42046FFF7A0FF57
:104E3C0028B129462046BDE83840FFF7BBB938BD3C
:104E4C000D2810B504469CBF0E34A4B22046FFF7C3
:104E5C008FFF50B103212046FFF794F9032804D1AA
:104E6C002046BDE81040FFF7ADB9002010BD000092
:104E7C0038B5002320254380142304460380856025
:104E8C0005610649284600F03AF804496060284656
:104E9C0000F035F8E060204638BD00BF34510D00FD
:104EAC0030B50F4D2978BFF35B8F11F0010487B03B
:104EBC0013D12846FFF7EBF878B101A8FFF7D8FF1C
:104ECC0001AA21460748FFF79BFB2846FFF7E4F8A9
:104EDC00054A0649034800F00BF8024807B030BDFC
:104EEC00D8E70320DCE7032034E60320B5450D00AA
:104EFC000B460146184600F005B8FFF7C6B8FFF799
:104F0C00C2B8000010B5054C13462CB10A46014638
:104F1C000220AFF3008010BD2046FCE7000000002B
:104F2C000A44914200F1FF3300D1704710B511F8DB
:104F3C00014B03F8014F9142F9D110BD02440346D5
:104F4C00934200D1704703F8011BF9E738B50D4BBC
:104F5C001D68AB6B04467BB91820FFF7A7FA0A4A09
:104F6C000A4BA863C0E90023094B83600B238381A0
:104F7C0001220023C0E90423AB6B00221C615A619F
:104F8C0038BD00BFD0E503200E33CDAB34126DE637
:104F9C00ECDE0500034613F8012B002AFBD1181A8E
:104FAC00013870471D400D0059400D0081400D0027
:104FBC0085400D0000000000000000000000000013
:104FCC0097450D008D450D0083450D0079450D006D
:104FDC006D450D0061450D006D470D0075470D00C9
:104FEC0055450D004D450D0043450D0039450D004F
:104FFC00A5470D000000000000000000B5450D00A5
:10500C00FF450D00D7450D00B7450D00DF450D00E0
:10501C00E7450D00EF450D00F7450D0000000000C1
:10502C000000000041460D0031460D0033460D00D6
:10503C006170700000000000000000002D470D00A2
:10504C0037470D0041470D004B470D0055470D00EC
:10505C0061470D006D470D0075470D007D470D0034
:10506C0089470D0091470D009B470D00A5470D008A
:10507C0025592D256D2D25645425483A254D3A2565
:10508C0053257A0061736374696D6500000000003C
:10509C0000000000D1490D003D4A0D00154A0D00DD
:1050AC0099480D00E5490D00014A0D00F3490D002A
:1050BC000F4A0D00D3490D00D7490D000000000028
:1050CC0000000000D14A0D00394B0D000F4B0D00B4
:1050DC0099480D00014B0D00D34A0D00E34A0D0019
:1050EC00334B0D00F34A0D00CD4A0D0000000000BB
:1050FC00000000003B4C0D00314C0D00274C0D0006
:10510C00DD4B0D001B4C0D000F4C0D006D470D00C1
:10511C0075470D00034C0D00FB4B0D00F14B0D00C2
:10512C00E74B0D00A5470D000000000015410D00D8
:10513C0011450D00A1450D001D470D0085480D00C2
:10514C0051490D0081490D00BD490D00454C0D0024
:04515C00000000004F
:04516000000000004B
:1051640090500D00D4E50320000000000000000072
:10517400000000000000000000000000000000002B
:10518400000000000000000000000000000000001B
:10519400000000000000000000000000000000000B
:1051A40000000000000000000000000000000000FB
:1051B40000000000000000000000000000000000EB
:0851C4000000000000000000E3
:1051CC00FFFFFFFF00000102030405060708090AA0
:1051DC000B0C0D0E0F101112131415161718191A9B
:0851EC001B1C1D1E1F202800E2
:0451F40078563412A3
:04000003D000401CCD
:00000001FF
